:10000000407A00204D530100710902002153010084
:100010002153010021530100215301000000000081
:100020000000000000000000000000001D4C010066
:100030002153010000000000C94B010021530100C1
:10004000CD4C0100EF120200CD4C0100CD4C01005F
:10005000CD4C0100CD4C0100CD4C0100CD4C010038
:100060009D120200CD4C0100CD4C0100D5120200C2
:10007000CD4C0100CD4C0100CD4C0100CD4C010018
:10008000CD4C0100CD4C0100CD4C0100CD4C010008
:10009000CD4C0100CD4C0100CD4C0100CD4C0100F8
:1000A000CD4C0100CD4C0100CD4C0100CD4C0100E8
:1000B000CD4C0100CD4C0100CD4C0100CD4C0100D8
:1000C000CD4C0100CD4C0100CD4C0100CD4C0100C8
:1000D000CD4C0100CD4C0100CD4C0100CD4C0100B8
:1000E000CD4C0100CD4C0100CD4C0100CD4C0100A8
:1000F000CD4C0100CD4C0100CD4C0100CD4C010098
:1001000053B94AB9002908BF00281CBF4FF0FF317E
:100110004FF0FF3000F00CB8ADF1080C6DE904CEE3
:100120000DF0C8F9DDF804E0DDE9022304B0704702
:10013000704700BF1FB51A4C207A8DF80100E07996
:100140008DF80000A079ADF804006079ADF80200E8
:10015000684607F0CDF808B1AD211CE0E0680290D8
:1001600002A807F0DBF808B1B12114E00D480068DF
:10017000039003A80FF0F4FD08B1B5210BE0A07EB9
:1001800007F0FEF808B1BE2105E0607E07F0F2F846
:10019000002803D0BF21032000F05EFA1FBD00003D
:1001A000100F0020040700003EB504460068C01D83
:1001B00020F0070020600020009001900290087855
:1001C0008DF8010048788DF8020088788DF80300DA
:1001D000C8788DF8040008798DF80500C87D8DF881
:1001E0000600487F8DF80800887F8DF80900C87FD9
:1001F0008DF80A0091F820008DF80B00084840792E
:1002000010B108798DF807000AB1002000E02068DD
:10021000694601F0C1F82168084420603EBD000035
:1002200040000020F8B50446887816460D4688B18F
:100230002068C01C20F003002060E97DEA786B8A0A
:100240001144CAB2A97806B1002001F083FB2168ED
:1002500008442060654FF87898B1287C88B13879D7
:1002600008B1FF2200E025222068C01C20F0030016
:100270002060297C06B1002001F000FC21680844C0
:100280002060287D90B1A87818B9F87870B1287CE2
:1002900060B12068C01D20F007002060297D06B1F4
:1002A000002002F0C1FB2168084420605048036828
:1002B00073B1287960B12068C01C20F00300206071
:1002C0006A7D297906B1002098472168084420609A
:1002D000484802686AB1A87D58B12068C01C20F067
:1002E00003002060A97D06B10020904721680844E2
:1002F00020604148D0F800C0BCF1000F11D0E87D6B
:1003000078B12068C01C20F003002060A97E009115
:100310006B7E2A7EE97D06B10020E0472168084413
:100320002060787978B1287968B12068C01C20F005
:10033000030020602A7F297906B1002001F0C4FB68
:1003400021680844206095F82100B8B12068C01DDC
:1003500020F0070020605EB195F821105FF00000EA
:100360004FF488720DF0FAFD21680844206009E01E
:1003700009F094F995F821102068F1E716B90020EA
:1003800009F08CF995F8220038B32068C01D20F0E0
:100390000700206095F8221006B10020FF220DF022
:1003A000DDFD276833463844C01C20F0030040F0D0
:1003B00004022260A97F012001F0B8FB2168002E11
:1003C0000844206010D1384609F06EF995F82200F3
:1003D000BDE8F840FB2109F06DB9002E04D1BDE85D
:1003E000F840002009F060B9F8BD0000400000208E
:1003F0004C000020540000205000002010B528B10F
:100400001422044910F0D0FB002010BD6FF015003D
:1004100010BD00002C0700002DE9F0416FF02C0604
:10042000002871D1474C607810B1B011BDE8F0815F
:10043000002976D06FF01500002AF7D0424B112921
:100440009D7879D2DFE801F078090C0F1F224A521B
:1004500069285558642D323F45001078187060E0C7
:10046000107858705DE091780029DFD0D1780029AC
:10047000DCD011781B29D9D351781B29D6D3106829
:10048000C3F805004DE01068D8604AE01178DA78CA
:100490009142CBD3997044E01178A942C6D8D97063
:1004A0003FE01178A942C1D8D9753AE01178002906
:1004B000BCD05178F929B9D80029B7D01088188351
:1004C000907898762DE01078D876107807F096FB23
:1004D00027E011780029A9D0197722E0E17811B13D
:1004E00011780229A2D3107818741AE01088588263
:1004F00017E01078187114E061790029117804D0A0
:10050000002993D059750CE016E002298ED3F9E743
:10051000117808298AD8997503E01188FF2985D8B0
:1005200019750122084900200DF014F9B0F5803F3B
:1005300004DB6FF00B0079E7304677E70121A1700B
:1005400074E7000040000020100F002010B5074C99
:10055000607820B107F0A6FA20780CF0FDFD01F0DC
:1005600043FB01F01BFC0020607010BD4000002028
:1005700070B50C46050002D00CB1600702D06FF0D8
:10058000150070BD00F0F8F8A8B128460CF0AAFDDF
:100590000A4D00220A49287020460DF0DBF810F0C1
:1005A000D8F80021287807F059FAFFF7C3FD012099
:1005B0006870002070BD4FF0FF3070BD400000201B
:1005C000100F002030B589B005000CD00CF032FDC2
:1005D0004FF0FF3420B10CF0E3FBB0F5FA7F05D902
:1005E000204609B030BD6FF01500FAE7154C1648EB
:1005F000A56000F07BFD00206070A070E0702071AD
:10060000607101462422684610F048FB24220F49FD
:10061000684610F0C9FA242269460D4810F0C4FA61
:10062000EFF3108472B601F0EDFA0A4801F0C2FB54
:1006300018B1CB21032000F00FF804B962B60020F6
:10064000CFE700004000002035010000080700004F
:10065000100F0020A50700000EB572B6154A956868
:10066000DDB1002203466E460A2403E0B0FBF4F03D
:10067000521CD2B20028F9D1B0540AE0D8B2B0FB73
:10068000F4F7B3FBF4F304FB1700521ED2B2303080
:10069000B054002AF2D13046A847BFF34F8F064826
:1006A0000168064A01F4E06111430160BFF34F8F16
:1006B00000BFFDE7400000200CED00E00400FA055B
:1006C000064810B581784078014302D04FF0FF30E2
:1006D00010BD07F0F9F9002010BD00004000002017
:1006E000074810B581784278114302D04FF0FF30AF
:1006F00010BD0121C17007F0F9F9002010BD000004
:10070000400000200100000001010100001B1B034C
:10071000020000004C1D000003001F000802000042
:10072000014900000100000000000000E07E2EC131
:100730005E0585234615DCFA8E297D701093A5FC95
:10074000054A10B5526812B1BDE810401047922119
:100750000420FFF781FF0000340F0020054A10B588
:10076000926812B1BDE81040104798210420FFF7AD
:1007700073FF0000340F00200548016829B141686B
:1007800019B1806808B1012070470020704700004F
:10079000340F002002490DC881E80D000020704789
:1007A000340F0020F8B5124C0026256811E000989F
:1007B000022802D003280CD106E0206810B10020E6
:1007C000266005E028210CE0206868B10120266041
:1007D000A847684601F0B4FA0028E8D0052805D0FB
:1007E00035210420FFF738FF2D21FAE7F8BD00007E
:1007F000580000202DE9FC41334E0546001D06F54A
:1008000084773060387858B1BA783C46791C2846ED
:10081000921C10F0C9F9002020700420BDE8FC8172
:10082000294801F06FFE0446022804D0042C07D0AA
:10083000082C42D045E0244928460CF0C0FF40E097
:1008400030780A2802D0262815D10FE005213E2055
:1008500000F03EF878B9B088ADF8000001A968460C
:100860000DF0F0F80028CDD0A8210CE01A213E2090
:1008700000F02EF850B11449284600F04DF8B0F5BC
:10088000817F11D3C7210820FFF7E6FE0F4801A999
:1008900000680090F088ADF8000068460DF0E0F8C0
:1008A0000028AFD0BA21EEE70028ABD0A97828788D
:1008B00000F00EF80028A5D003E0034928460CF00C
:1008C000ACFF2046AAE70000400F002014090000FA
:1008D00070B50C46054600F0B3FB002802D03E2D53
:1008E00001D0012070BD122C06D1064801780229E2
:1008F00002D040780028F5D02046BDE8704000F0D6
:10090000B1BB00001402002001494870704700008C
:1009100014020020000011002DE9F84F044691F860
:1009200000C00D4600203E26A21CE31CFF274FF00E
:1009300010094FF0030E4FF01A0B04F10D014FF0A8
:10094000120ABCF1320F75D2DFE80CF074334B4E53
:1009500052FD74ADB6C4FEFBFAF9F8F7F6197475DA
:100960007492F5F4F3F274F174F0EFEEED74ECEBD5
:10097000EAE9E8E7E6E5E4E3E2E1E0DF74DE0E2041
:1009800020706879E070B5F80500000A20712879B8
:10099000A070B5F805008338B0F5005F03D03621AC
:1009A000C720FFF759FE7246E91D601D10F0FCF8E4
:1009B000FEE20C2020702879A0706879E070B5F80C
:1009C0000500000A2071E8796071287AA0712889F1
:1009D000000AE071A87A20726889000A6072082013
:1009E0007FE284F8009001E084F800B028793AE1D1
:1009F00026700220A07015F8040FE070A87A20710C
:100A000068786071D5F80200C4F80600E888608153
:100A1000287A20732E7A1F2E00D31F2608463246CE
:100A200005F10B0110F0C0F80D36697AA155761E5C
:100A3000F0B254E258E226700B20A0702879E070E2
:100A400068792071A8796071D5F80700C4F80600AC
:100A5000B5F80B006081687B2073D5F80E00C4F8F0
:100A60000D00688AA4F81100287DE074504638E231
:100A7000292000F0F7FA48B126702920A070212221
:100A8000291DE01C10F090F822202AE20A2000F034
:100A9000E9FA00282946204602D00CF01EFF1EE28B
:100AA0000CF0F2FE1BE226701420A0702879E07092
:100AB000A888000A207157E13E20207004201070A1
:100AC00068681860A8685860A8891881A87B98721F
:100AD0000C2006E2267084F802E02879E070A879FC
:100AE0002071E888000A6071287AA0712889000ABC
:100AF000E071A87A20726889000A6072287BA0726F
:100B0000A889000AE07245E254E227E208E233E2F3
:100B100042E2FAE1EAE1C5E1B9E1EFE1A5E14EE146
:100B200024E11BE10DE1F5E0F1E0E9E0BFE0ADE03B
:100B300097E09BE042E03EE053E04DE031E025E00D
:100B400018E015E000E055E026700520A070287937
:100B5000E070A888000A2071D5F80600C4F80500E6
:100B6000D5F80A00C4F80900E889A4F80D0036E2B7
:100B7000112037E0052020702879A0706879E07096
:100B8000B5F80500000A2071E879C6E10820207058
:100B90002879A070A879E070E888000A2071287A86
:100BA000BBE1302020702879A070A879E070E88837
:100BB000000A2071A0E126700720B3E126700C2006
:100BC000A0702879E070A8792071E888000A607127
:100BD000287AA071687A56E0291D204600F002FAB2
:100BE0007DE1572020702879A070A888000AE07065
:100BF000022076E126700D22A2702A79E270EA893D
:100C0000A2806A79A271D5F80620C4F807206A8903
:100C1000A4F80B202A7C20466273291D6A7C82730B
:100C20008A7BC2738A7E02744A7A4274B1F81120B8
:100C3000ADF800204282CA7C02754A69C0F81520CE
:100C40000A8BA0F819200A7AC2760D7AE52D00D316
:100C5000E5252A461C301C310FF0A6FF1A35E8B2F4
:100C60003DE126701120A07001203AE1267084F841
:100C700002A02879E07068792071A8796071E8880D
:100C8000000AA071287AE07106202AE1267024204B
:100C900000F0E8F908B124205DE00E20A0700F26D6
:100CA0003246291DE01C0FF07FFF701C17E12670F3
:100CB000252000F0D7F940B12520A0700A26324641
:100CC000291DE01C0FF070FF0FE00F20A070A98815
:100CD000A4F80310A9796171E979A171297AE17108
:100CE000297B2172697B61720726A0196A7B05F155
:100CF0000E01C01C0FF058FF687B761C3044EEE0FC
:100D0000267084F80290A888A4F80300F4E0267006
:100D1000202025E126702120A0702879E0706879D4
:100D20002071B5F80500000A6071E879A071287A91
:100D3000E071687A2072A87A6072E87AA07209205D
:100D4000CFE02670262000F08DF918B12620A07083
:100D50001726A5E71820A0701326A1E726702720E4
:100D6000A070A888A4F80300A879D6E026702820EF
:100D7000A0706968002604F10308C4F80310304627
:100D800015E000BF08EB0600A919071D51F8080F70
:100D900038608888B8807A79B81D891D0FF004FF03
:100DA0007879B61D304486B209F10100C0B298F8D6
:100DB000031081464945E5D8761DB0B28FE0267014
:100DC0001920A0702879E07068792071B5F80500C5
:100DD000000A6071E888000AA071D5F80600000CCE
:100DE000E071D5F80600000E2072B5F80900000A7F
:100DF0006072D5F80900000CA072D5F80900000E49
:100E0000E072A889000A2073E868000C6073E86843
:100E1000000EA073B5F80F00000AE073D5F80F00BC
:100E2000000C2074D5F80F00000E6074E87CA074EC
:100E3000287DE074687D2075A87D6075E87DA075CB
:100E4000287EE075687E2076A87E6076688B000A32
:100E5000A076287FE076A88B000A2077A87F6077AD
:100E6000E88B000AA0771D203BE0267084F802B0D2
:100E70002879E070A888000A2071A8796071E88854
:100E8000000AA071287AE071687A207290E0184612
:100E90003E23237022231370291D13220FF084FE9A
:100EA00014201EE03E2020701D2010701E462D1DB7
:100EB0000E22294630460FF077FE0021084609E051
:100EC00005EB400206EB4003891CD289401CDA8105
:100ED00089B2C0B26A7B8242F2D80F3188B2002850
:100EE00002D06070801C80B2BDE8F88F3E20207078
:100EF0001E201070A88818800320F2E73E20207082
:100F00001F2010706868186034E02770A120A0705E
:100F10002879E07068792071002060710420E0E792
:100F20002770A220A0702879E070A888000A20719C
:100F3000A8796071E888000AA071287AE071288990
:100F4000000A2072A87A60726889000AA072287B61
:100F5000E072A889000A20730B20C2E72770A32043
:100F6000A0702879E070A888000A2071A8796071C3
:100F7000E879A0710520B4E726701320A0702879C5
:100F8000E07068792071D5F80600C4F8050068891A
:100F9000A4F809000A20A4E72770A420A0702879EB
:100FA000E070A888000A2071A8796071E879A071C2
:100FB000072096E727708020A070A988A4F8031066
:100FC000E988A4F80510297AE17169892181A98944
:100FD0006181E989A181297C01F00101A1730D20C2
:100FE0007FE7000070B50A7882703AB3012A25D8ED
:100FF0001323037000230AE001EB430400EB4305D5
:10100000A678EE706488240A5B1C2C71DBB29342D4
:10101000F2D300230BE000BF01EB430500EB4304D8
:101020002E796671AD882D0A5B1CA571DBB29342E7
:10103000F2D3012101EB8200C0B270BD002070BD6F
:10104000402803D2401EC1B2054805E0FF2805D064
:101050004038C1B2024808300CF073BC0120704720
:101060005C000020401EC1B201480CF06ABC0000C8
:101070006C000020024902680A61406848617047BC
:101080005C000020054902680A60406842F48C2236
:101090000A60034A10434860704700005C0000206B
:1010A000F807400207484FF0FF3100220160C90CE9
:1010B000416000F108011F200A604A600831C1E95F
:1010C000000270475C00002010B5FFF7EBFF002026
:1010D000FFF71AFC0EF0ACFF04460348006800B1AD
:1010E0008047204610BD00007400002001490860C0
:1010F00070470000740000202DE9F04104464FF0D5
:101100008050D0F8A0701F4D1E4E103D10220021BF
:1011100020460FF0C3FD1022002104F110000FF053
:10112000BDFD2868401C08D16868401C05D1A8682E
:10113000401C02D1E868401C07D028686A68A9688A
:10114000EB6820616261A161E361002000F088FE2C
:101150008743F80713D13068401C08D17068401CE1
:1011600005D1B068401C02D1F068401C07D032683D
:101170007068B168F36822606060A160E36000207D
:10118000BDE8F0819000001038B54FF08051044662
:101190002248D1F8A010214D0268143D521C04D100
:1011A0004268D2431204120C35D0C90733D001680B
:1011B0004068ADF80000C4F80110BDF80000A4F8C4
:1011C0000500A07940F0C000A0712868401C0CD038
:1011D0006868401C09D0A868401C06D0E868401C1C
:1011E00003D0002000F03CFE40B110220021E01DA1
:1011F0000FF054FD01202070002038BD2A68696876
:10120000A868EB68C4F80720C4F80B10C4F80F00F6
:10121000C4F81330EEE70020EDE70000A400001052
:1012200002210180418000210171E021417142F6DB
:101230007E61C1800149816000207047C15E0585E3
:101240002DE9F0418F79DDF818E0082F01D9DB2175
:101250002CE0DFF8A4C05CF820400CB1DC2125E0D4
:10126000CC79002C45D064001D680A346619022F21
:1012700001D93D4601E04FF002052E44A6F10106DA
:1012800001D93D4601E04FF00205A5F1010526EA2E
:1012900005068D883D44A5F10105A7F1010725EA62
:1012A00007054FF6FF77BD4203D3E7211720FFF76D
:1012B000D3F9BEF1000F18D1341B4CF82040258023
:1012C000C879A0700120E070227108684FF6F072B2
:1012D000000CE08008882081002003E004EB400738
:1012E000401C7A81CF798742F8D8C87900FB056025
:1012F0001860BDE8F08100004C11002070B5054673
:10130000194850F8214064B3B5F5706F04D340F22A
:1013100025211720FFF7A0F9294620460CF088FD6B
:101320000146FF2804D02046BDE870400CF0A7BD60
:10133000A078B5FBF0F100FB1150C6B232464FF673
:10134000F07120460CF088FD0246FF2809D0B24219
:1013500001D00020E07029462046BDE870400CF026
:1013600061BD002070BD00004C11002002460948FC
:1013700010B550F82140114620460CF059FD0146A9
:10138000FF2804D02046BDE810400CF078BD0020B6
:1013900010BD00004C1100202DE9F0410C4606461E
:1013A0008978607886B00144FF2902D94FF48271B0
:1013B0000CE02178814202D94FF4847106E0049652
:1013C0003EB10025700706D040F219111720FFF733
:1013D00043F90125F6E74FF000082C224146664804
:1013E0000FF05CFC654F6378D7E90002B96863F3DE
:1013F0001F6203910095CDE9010204AB424601A9A9
:101400000020FFF71DFFD7E90302A37894F80180BD
:10141000796963F31F6203910095CDE9010204AB82
:10142000424601A90120FFF70BFFA178E37801EB09
:10143000080000F0FF08D7E90602396A63F31F626B
:1014400003910095CDE9010204AB002201A902201D
:10145000FFF7F6FED7E909022379F96A63F31F6201
:1014600003910095CDE9010204AB002201A90320FC
:10147000FFF7E6FED7E90C026379B96B63F31F62ED
:1014800003910095CDE9010204AB002201A90420DB
:10149000FFF7D6FED7E90F10A3797A6C63F31F60CC
:1014A0000392CDE90110A07918B106F09DFBADF8CB
:1014B000080004AB002201A905200095FFF7C0FE3B
:1014C000D7E91210E3793A6D63F31F60CDE90202A8
:1014D000CDE9005104AB002201A90620FFF7B0FEC0
:1014E000D7E91510237AFA6D63F31F60CDE9020284
:1014F000CDE9005104AB002201A90720FFF7A0FEAF
:10150000D7E91810637ABA6E63F31F60CDE902025F
:10151000CDE9005104AB424601A90820FFF790FE37
:10152000617AA37A01EB080000F0FF08D7E91C01FB
:10153000FA6E63F31F6003910095CDE9012004ABBF
:10154000002201A90920FFF77BFE7837E37A97E8AC
:10155000070063F31F610DF1040C00958CE8070090
:1015600004AB424601A90A20FFF76AFE049806B0C0
:10157000801BBDE8F08100004C1100206C160000BB
:1015800010B5044680790E4951F82000A8B14FF6F5
:10159000F073E179827891420FD24A1CE27100EB3C
:1015A000410252899A42F4D000EB41025289A28052
:1015B0000CF065FC2060002010BD052010BD00006F
:1015C0004C1100202DE9F04107464FF6FF7038809E
:1015D000124850F82140ECB1A5782079B0FBF5F124
:1015E00005FB110632464FF6F07120460CF034FC34
:1015F0000246FF280ED0A81B1044B0FBF5F105FBF6
:1016000011002179084481B239802046BDE8F041BB
:101610000CF008BC0020BDE8F08100004C11002057
:101620002DE9F0410746104850F821503946284628
:101630000CF0FEFB0446FF2812D0D5F80600214628
:101640004FEA304628460CF01AFC01463846B047AF
:1016500005EB44014FF6F07048810020BDE8F081B1
:1016600043F20200FAE700004C110020E9F4000008
:101670008803080000000000D3F2000018040800EE
:1016800000000000B1EA0000600108000000000056
:10169000030601009000080000000000097C000023
:1016A000A8000800000000001B070100000008005F
:1016B000000000001F07010080000800000000007B
:1016C000F1F60000700008000000000079F500004D
:1016D000600108000000000047F70000E800080073
:1016E000000000008BF700009800080000000000D8
:1016F0002DE9FF4F244C064681B020689A46934658
:1017000058B1017AB14203D9406850F8260040B17F
:1017100043F2020005B0BDE8F08FA5211820FEF7C6
:101720009BFF194602980CF0E4FB804658460E9940
:101730000CF0D5FB054608EB0500001D87B22068BC
:10174000A146394600680CF008FB04001AD06780F7
:1017500025802946201D0E9D07465A4609230095DF
:101760000CF071FA2088414638440A23029ACDF8D9
:1017700000A00CF068FAD9F80000406840F8264054
:101780000020C7E70420C5E77800002070B5144C9E
:1017900023688BB1197A814212D95A6852F8201005
:1017A00071B1002542F820504A8818680CF02DFBD2
:1017B000216800200A7A0CE0C6211820FEF74CFFB1
:1017C00043F2020070BD4B6853F8203033B9401C1F
:1017D000C0B28242F7D808680CF00CFB002070BD44
:1017E000780000202DE9F0410D46040090464FF0AE
:1017F000000606D00027A00705D086211820FEF796
:101800002BFF0127F7E7CDB1114600200CF0D6FAE7
:101810000C3000EB85068FB90A4F04F10C00AA00CA
:101820003C602572606000EB8500206000216068EC
:101830000FF034FA414638680CF0C0FA3046BDE883
:10184000F0810000780000200A4910B502460968BE
:10185000002059B10B7A934207D9496851F82210F8
:10186000002902D031F8040B084410BDFA211820D9
:10187000FEF7F2FE78000020FEB506464418C818B0
:1018800000210DE05EB1009101910291E5180095F3
:101890002560019F67609DF8087027722C461844E8
:1018A000521E1204120CEDD1002E11D000910191A4
:1018B000029108490A6800924A680192097A8DF8F3
:1018C000081000992160019961609DF8081021724B
:1018D000FEBD0000060E01002DE9F0411C4E4568DA
:1018E00004460022A1B101206070708883080020A6
:1018F00004EB400104EB80060A830B8400FB0351D8
:1019000071602118401C0A750428F1D3BDE8F081EC
:101910006270002004EB40010A830A8404EB80011A
:101920004A602118401C0A750428F3D370880CF013
:10193000A5FB074670880CF0A8FB65602084291879
:10194000A1606784E560A0842161E784DEE7000090
:101950007C0000202DE9F04768B100261144DFF833
:101960009C80CFB2002488F80070810705D04E21FA
:101970000920FEF771FE0126F0E71F2B04D84FF671
:10198000FF7101EA830509E05900FF2B0CD903F12F
:10199000FF02B2EB430F00D211468DB24FF6FC713D
:1019A000ED1C0D4036B109E07C22B2EB430FF4D3BD
:1019B0007C21F2E7C8F80400A8F8025007EB870181
:1019C00004EBC10200214FF001090FE05EB9D8F825
:1019D000044001EB810300EB020C04F8339004EBAC
:1019E000C303C3F804C0491C2A44C9B2B942EDD3A9
:1019F000D21D22F00700BDE8F08700007C00002027
:101A000070B511480024214602780CE0456801EBCE
:101A1000810315F8333023B101EB810105EBC104DB
:101A200003E0491CC9B29142F0D344B10025A5702E
:101A300001212046FFF750FF2570204670BDA921E7
:101A40000920FEF709FE00007C000020044810B5C4
:101A5000408884080CF019FB844200D3204610BD56
:101A60007C0000200148407870470000840000207E
:101A70000148406870470000840000202DE9F843C9
:101A80000C46074616462E2110460D4622460CF0FF
:101A900023F9804657B13846414632462B460094DA
:101AA0000CF0D1F803484760047046704046BDE82A
:101AB000F8830000840000200248427801784068E2
:101AC000FFF7DCBF840000202DE9F8430F460446F1
:101AD0001646F72005210CF0FFF84FF6FC71C01CEC
:101AE00000EA0105DCB1A00703D095211920FEF71B
:101AF000B3FD0D4880460460858000240DE0B8F8F1
:101B00000400D8F80010F72204FB00102946052332
:101B100000960CF098F8641CA4B2BC42EFD307FB0B
:101B200005F0BDE8F88300008C0000207FB5054675
:101B300002980E461C46410701D0800703D01F21A2
:101B40004C20FEF789FD4FF48872294600200CF0E6
:101B500005FA06FB00F10CB1002000E002A80CF031
:101B60002DF9002C03D103490D70029A4A6004B08C
:101B700070BD00009400002070B5074C05464FF47E
:101B80008872217800200CF0E9F902462946606845
:101B9000BDE870400CF039B99400002030B50D4913
:101BA00001204860821EC1F808230B498860002389
:101BB000C1F80032C1F80823084C2360251D2860B5
:101BC0008860C1F80823236028600649044808603B
:101BD00030BD000000E0004000F0004000F5004093
:101BE0000000F63F08F5014010B5FFF7D7FF0CF0F5
:101BF00025FB03490148086010BD00000000F63FC6
:101C000008F5014010B5FFF7C9FF0CF017FB00F015
:101C100087F805490348086000F0B8F8BDE81040AF
:101C200000F0DCB80000F63F08F501402DE9F84F60
:101C3000824638480EF0C7FEDFF8D8B028B101263A
:101C40000BF10100FF21017000E000264FF48075C8
:101C5000314C4FF000082F1D01216160C4F8008154
:101C6000C4F80481C4F804A52160DFF8B0901CE03A
:101C7000D9F80000C00618D50E200CF0EEFAEFF3EC
:101C80001080009072B603212046C4F80413294640
:101C90000CF0F0FA30B9394620460CF0EBFA08B9EE
:101CA0000EF028FF009800B962B6294620460CF0D5
:101CB000E1FA28B9394620460CF0DCFA0028D7D0E2
:101CC000394620460CF0D6FA0028C5D106BB9BF851
:101CD00001108DF80010009900919DF8001009B1D5
:101CE000012500E000250BF1010080F800800320B1
:101CF000C4F80803C4F80481C4F800810E200CF075
:101D0000ACFA04480EF076FE15B11120BDE8F88F4C
:101D10000020FBE71602002000E0004010ED00E08C
:101D200010B506480EF062FE18B130211D20FEF7F6
:101D300093FC02480021417010BD000016020020F3
:101D400070B511490A68EAB100231D4601244A68AA
:101D5000521C4A60092A00D34D600E7904FA06F23B
:101D60000E6816420BD0EFF3108372B60C689443E2
:101D70000C6003B962B649680160002070BD5B1C4D
:101D8000092BE4D3052070BD9C00002002480021EF
:101D900001604160704700009C00002010B5044CB9
:101DA0002078FF2803D00BF0D7F9FF20207010BD5A
:101DB0000000002010B5084C617809B10F2010BD5B
:101DC0000BF090F92070FF2801D0002010BD732186
:101DD0001F20FEF741FC0000000000200149002008
:101DE000487070470000002005498A8E824218BF63
:101DF0007047002081F832004FF6FF7088867047E8
:101E0000901200200A4A10B1012807D00EE0507845
:101E100060B1D2F802000860D08804E0107828B1E0
:101E20009068086090898880012070470020704782
:101E300018020020094A012340B1012818BF704749
:101E400013700868906088889081704753700868A4
:101E5000C2F802008888D080704700001802002075
:101E6000064910B1012803D006E0487810B903E014
:101E7000087808B101207047002070471802002040
:101E80000149087770470000EA0800200246074829
:101E900010B5007838B10648417821B1801C05F0B2
:101EA000D3FE012010BD002010BD00000C02002058
:101EB000C6120020004870475014002004494A7898
:101EC000824286BF084490F842010020704700001B
:101ED000C612002004494A78824286BF01EB0010F6
:101EE0008230002070470000C6120020054A01EB36
:101EF000410102EB41010268C1F80A218088A1F882
:101F00000E017047C61200202DE9F041134C064621
:101F100000256078002898BFBDE8F081C0B2A842D3
:101F200014D904EB0510823010D0611991F84211D8
:101F300061B905EB450104EB410707F585713246B0
:101F40000CF0E7F9B7F80E01A7F80E01681CC5B24E
:101F50006078A842E2D8BDE8F0810000C6120020F7
:101F600004494A78824286BF01EB0010801C0020A1
:101F700070470000C612002008494A78824203D9FF
:101F80000A1892F842210AB10020704700EB400085
:101F900001EB400000F5857070470000C61200207C
:101FA00010B54FF4C572002105480EF077FE0548C4
:101FB0000021017041704FF46171418010BD00003B
:101FC000C61200200C02002070B50C46054605F034
:101FD00061FF05F051FE0A482A46007868B1094BB6
:101FE000597851B1002C0CBF03F18200981C05F008
:101FF0002BFE05F06BFE012070BD002070BD0000BF
:102000000C020020C61200200B4B93F801C084453F
:102010009CBF00207047184490F80201C0EBC0003C
:10202000184490F852310B70D0F853111160B0F889
:102030005701908001207047C612002010B500F0B3
:1020400083F8082808BF10BD01460B4A002092F80B
:1020500001C0BCF1000F0CD9131893F802318B4268
:1020600003D1082818BF10BD03E0401CC0B284454E
:10207000F2D8082010BD0000C61200200246064813
:1020800010B500EB01100121823005F0DDFDBDE847
:10209000104005F01BBE0000C61200200148408819
:1020A000704700000C02002070B5012516462C4632
:1020B00000F04AF8082821D0144900234A78002A61
:1020C0001CD900BF01EB030C9CF802C1844518D158
:1020D000082B13D0002E18BF3370487898420DD9C2
:1020E00001EB031010F1020F08D0C81890F84A4114
:1020F00090F83A0101280CBF0125002545EA0400AB
:1021000070BD5B1CDBB29A42DCD8F7E7C612002038
:1021100006494A78824206D9084490F83A010028D4
:1021200004BF01207047002070470000C612002045
:1021300001484078704700000C02002001494870B7
:10214000704700000C0200202DE9F00F204B0246E2
:10215000002093F80080B8F1000F35D90F784E7841
:102160008D78CC7891F804C091F805A0C0EBC0013F
:10217000194491F8529191F853B182EA090987EA1A
:102180000B0BD94491F854B186EA0B0BD94491F862
:1021900055B185EA0B0BD94491F856B184EA0B0B83
:1021A000D94491F857B191F858118CEA0B0BD944E6
:1021B0008AEA010111EB090F04BFBDE8F00F704777
:1021C000401CC0B28045D1D8BDE8F00F0820704750
:1021D000C612002070B58CB000F110041D461646E2
:1021E0000DF1FF3C5FF0080014F8012C8CF8012081
:1021F00014F8022D0CF8022F401EF5D101F1100C3D
:102200006C460DF10F0108201CF8012C4A701CF8D7
:10221000022D01F8022F401EF6D120460CF037F8AF
:102220007EB16A1E04F130005FF0080110F8013C35
:10223000537010F8023D02F8023F491EF6D10CB06F
:1022400070BD08982860099868600A98A8600B9883
:10225000E8600CB070BD000070B501260446002592
:1022600071B1584A012932D002297BD0032918BF05
:1022700070BD04F1CE01BDE87040CD300CF03CB92A
:102280004FF4836200210EF009FD84F8CD604E4AC0
:10229000C4F816210722C4F81A2194F81621FE2149
:1022A00022F0040284F8162184F84E117F2184F86C
:1022B000C110464904F1A800C4F8B0100021C0F8CC
:1022C000B050C0E90011202084F8940370BDA4F838
:1022D000265384F81B5360693D49B2FBF0F2014478
:1022E000B1FBF0F1C4F8EC1040F6B831A4F8F010EE
:1022F000E38BA4F8F650B4F8FAC0521C0CFB00FCB7
:10230000BCFBF0FCA4F8FAC040F2712C03FB0CF308
:1023100000EB03135B1EB3FBF0F3A4F8F830A4F852
:10232000FE202C4A04F1A80100EB0212521EB2FB5F
:10233000F0F24A640A6C4243B2FBF0F008642631C2
:10234000481E0CF0D9F80EF0B1FB38B1A06900F0CE
:1023500085FA002804BF84F8086370BD84F8085328
:1023600070BDFFE7D4F8EC13B4F8F2C3636904F16D
:10237000A800A4F8F650B4F8FA40B2FBF1F25C43BE
:10238000B4FBF1F4A0F8524040F271240CFB04FCC1
:1023900001EB0C1CACF1010CBCFBF1FCA0F850C033
:1023A000521CA0F85620B0F84820624301EB0212FC
:1023B000521EB2FBF1F24264026C5A43B2FBF1F1DD
:1023C000016470BD005A62022F4904C400E0FCFFA2
:1023D0007FC3C901389C1C0041F64C5291423DBF5D
:1023E0000549A1FB0010400940F2E24128BFB0FBC3
:1023F000F1F080B2704700001F85EB5141F64C525E
:1024000091423DBF0549A1FB0010400940F2E24165
:1024100028BFB0FBF1F0C0B2704700001F85EB5140
:1024200030B40022A1F1010CBCF1000F12DD431EFB
:1024300011F0010F08BF13F8012F5C785FEA6C0CF4
:1024400008D000BF13F8025F22435C782A43BCF136
:10245000010CF7D1491E5CBF405C0243002A0CBF4F
:102460000120002030BC7047074991F90010084452
:102470001428C4BF1420704710F17F0FB4BF6FF051
:102480007E0040B27047000026020020024A002170
:1024900011705170704700002602002008B57F209F
:1024A0008DF80000684606F059FB002804BF9DF92E
:1024B000000008BD9DF9001007484078404240B236
:1024C00008441428C4BF142008BD10F17F0FB4BF06
:1024D0006FF07E0040B208BD26020020074908B513
:1024E00009788DF800109DF8001000291CBF00200D
:1024F00008BD03490EF082F9012008BD2802002022
:10250000290200202DE9F84FDFF85CA2974F83469F
:102510004FF00108002578682E46007A8DF80000FB
:10252000009800909DF80010102908D19AF8170023
:1025300028B1BAF81800002808BFBDE8F88F28466F
:102540003C6914B3217A8DF80010009900919DF830
:102550000020D2B10028F2D1B4B3207A8DF8000067
:102560009DF8009004F1080005210170A9F1020016
:102570000F2880F0EC80DFE800F02B3945EA7E7010
:1025800093704F4F707070B5D9007C68227A8DF8C7
:102590000020009A00929DF80030012B08BF0446ED
:1025A000D8D0EFF3108172B622687A6001B962B6B2
:1025B000217A8DF80010009900919DF80020002AE2
:1025C0000CBF40463C61C5E7FFE70020BDE8F88F3F
:1025D000626832B1594620469047042060F30706EE
:1025E0008CE040F2C3111020FEF736F8626822B189
:1025F000594620469047064680E04FF4E671102089
:10260000FEF72AF8616811B12046884776E04FF45A
:10261000EB711020FEF720F855480368002B6DD0B1
:1026200060684A46594600909847042060F30706C0
:102630009BF800001E2805D01B285FD19BF80400E2
:1026400000285BD0009804210089FEF7E9FF18B349
:1026500040F2EB111020FDF7FFFF46480368C3B3BB
:1026600060684A4659469847042060F30706B9F166
:102670000D0F11D042E0626832B1594620469047B2
:1026800003F09EFE28B107E040F211211020FDF773
:10269000E3FF02F0EFF9E0B104203D61BDE8F88FFF
:1026A0006068B8B104882046FFF7CEF8B0B18BF867
:1026B00001500F218BF80010ABF80640ABF80880F2
:1026C0008BF8048000210BF0E9FA04203D61BDE89D
:1026D000F88F13E0E5211020FDF7BEFFC521102083
:1026E000FDF7BAFF8BF801501F208BF80000D4F8DB
:1026F0000900CBF80400042060F30706C6F30720A6
:10270000012808BF84F8089027D0EFF3108072B634
:10271000217A8DF800109DF80010052913BF0029BB
:1027200025723D6165F30706B8B915E012480268E5
:1027300022B1606830B100885946904702203D615F
:10274000BDE8F88F4FF410711020FDF785FF40F2BF
:102750004A211020FDF780FF62B616F0FF0F3FF40C
:10276000DAAEF0B2BDE8F88F78110020A811002091
:10277000AC000020A8000020A40000200A4910B5E9
:1027800008700A48002141618161C16101624162B2
:1027900012220EF083FA0648012100F10C0211709A
:1027A000011D4160016010BD2E0200209411002027
:1027B000A811002038B5037A8DF800309DF800305C
:1027C00023B140F2C2211020FDF746FFF0B1416075
:1027D00000F108010A70EFF3108372B6DFF844C00D
:1027E000C0F800C0ACF104014A6852B1127A8DF809
:1027F0000020009A00929DF80040012C08BFC1F80B
:1028000000C00A681060086033B904E040F2752126
:102810001020FDF721FF62B603480078BDE838407C
:102820000AF07EBCAC1100202E020020094810B531
:10283000002141618161C1610162416212220EF099
:102840002DFA0548012200F10C010A70011D4160BA
:10285000016010BD94110020A811002070B46FF029
:102860001F02010C02EA90251F23A1F5AA4054384B
:102870001CBFA1F5AA40B0F1550009D0A1F5285020
:10288000AA381EBFA1F52A40B0F1AA00012000D14C
:1028900000204FF0000C62464FEA0C048CEA01065F
:1028A000F6431643B6F1FF3F11D005F001064FEA9B
:1028B0005C0C4CEAC63C03F0010652086D085B084C
:1028C000641C42EAC632162CE8D370BC704770BC58
:1028D0000020704710B50C4C08212046FDF73EFF44
:1028E0002068002804BF60680028F5D0074C00BFAE
:1028F0004FF008012046FDF731FF2068002804BF93
:1029000060680028F4D010BDB0000020B80000209E
:10291000094A0A48D2E9001348434B4083EAB111FF
:1029200081EA432111604FEAF0604FEAF34100EB86
:102930008000516070470000B0000020BB79379ED6
:10294000094A0A48D2E9001348434B4083EAB111CF
:1029500081EA432111604FEAF0604FEAF34100EB56
:102960008000516070470000B8000020BB79379E9E
:102970002DE9F84391F801C00A788C784FEA1C637E
:1029800042EA0C2242EA044243EA1443CC784FEA7A
:10299000142C42EA04640A7943EA0C031A43497985
:1029A000012842EA012108BF41F480310D466A4600
:1029B000204600F095F800281CBF0120BDE8F883F0
:1029C000DFF8608098F8000098F80110884204BF92
:1029D0000020BDE8F8839DF80090484515D9D8F847
:1029E0000410A0EB090C01EBC00300220CF0FF0C5B
:1029F000861A01EBC606521C56E9027663E8027697
:102A0000ACF1010C1CF0FF0CF2D1D8F80410401C02
:102A100001EBC901C1E9004588F800000120BDE8CB
:102A2000F8830000C000002010B510F0070F03D09D
:102A300063214820FDF710FE20B1034A5170506019
:102A400000201070C80010BDC000002038B54B78C1
:102A50000A784FEA136C8C7842EA0323CA7843EA77
:102A600004434CEA144C43EA02634CEA122291F804
:102A700004C0497942EA0C0242EA0121012808BF58
:102A800041F4803118466A4600F02AF8002808BF51
:102A900038BD0C480178491EC9B201709DF800206C
:102AA0008A420DD24068891A00EBC200C9B20830D0
:102AB000491E70E8022311F0FF01E0E80423F7D17A
:102AC000012038BDC0000020014900200870704777
:102AD000C00000200148407870470000C00000207E
:102AE0002DE9F001294E002313703378002B44D0D8
:102AF0005B1EDBB24FF0000C012BC8BF756810DD08
:102B00000CEB0304640805EBC407D7E90087B8EBB6
:102B100000088F4134BFA4462346A3EB0C04012CCC
:102B2000EEDC766806EBCC05D5E9004580EA0407C3
:102B300081EA050857EA080708BF82F800C020D0DC
:102B4000041B71EB05043FBF82F800C00020BDE804
:102B5000F001704706EBC30CDCE9004C80EA040589
:102B600081EA0C06354308BF13700AD0001B71EBD5
:102B70000C0032BF1370581C10700020BDE8F0012B
:102B80007047BDE8F001012070470000C000002040
:102B90002DE9F0410446807C002816BF0228002061
:102BA000012084F8680018B3607E68B3D4F813007D
:102BB000C4F86900B4F81700A4F86D00A07C0228DE
:102BC00016BF032801210021A1764FF00800E0760E
:102BD00094F868004FF001074FF00008012804BF87
:102BE00094F86E2012F0C00F1BD0012811D016E00F
:102BF00004F169010020FFF705F90028DED140F259
:102C0000BA412D20FDF728FD40F2BE412D20FDF7F1
:102C100023FD94F86E0000F0C000402801D0002091
:102C200000E00120207731B194F86F0004F17001C9
:102C3000FFF704FAE076FFF731FA3749A0FB0165A8
:102C40000DF01EFE80196941C4E918010026E07EDE
:102C5000FFF740F90546A07E002818BF002D03D0DD
:102C6000E07EFFF72BF958B194F8820000281CBFD2
:102C7000207F00281DD094F8680001280ED013E0B2
:102C800084F86870324604F1690128460BF041FB74
:102C9000E17E04F16900FFF729F90AE094F86E007B
:102CA00000F0C00040282FD0414604F169000BF02D
:102CB0001FFB84F87680A07810F0040F08BFBDE8F1
:102CC000F0810026E07EFFF74BF9050008BFBDE864
:102CD000F0811021FFF7A4FB002818BFBDE8F081A8
:102CE00084F87670324604F1770128460BF011FB28
:102CF00004F17701094CA0680BF032FEA068BDE832
:102D0000F04101210BF033BEFFF7D4F8324604F155
:102D100069010BF0FEFACCE740420F00C80000202A
:102D2000F8B504460D4630300CF04FF8B4F802C048
:102D3000CCF3001129B1BDE8F8402822614601F02A
:102D4000A3BACCF34001002914BFB4F85C60B4F816
:102D5000546021791D4A4FF47A73082932F8112002
:102D600002F2E732B2FBF3F708BF40230AD004298E
:102D700008BF102306D0022907BF0423122208230C
:102D8000192200E0142213FB02F2082908BF402395
:102D900019D0042908BF2E2315D0002302290CBF07
:102DA000182128211944114411FB00716FF07F0292
:102DB00002EBC0100144CDF800C062792B463046CA
:102DC00000F0FCFEF8BD4FF4A871EBE73C420000B8
:102DD0002DE9F04F80468FB00C46C269D8E9050155
:102DE000D8E90076D8E903A90592CDE90301D8E92D
:102DF0000801D8F82820CDE90601089201A80CF0B6
:102E00005CF8A07A60F31749207860F30707B4F8FC
:102E10000100ADF800009DF8000000F00101C0F3D2
:102E2000400241EA4201C0F3800241EA8201C0F35C
:102E3000C00241EAC201C0F3001241EA0211C0F32C
:102E4000401241EA4211C0F3801041EA801B207D0C
:102E50006BF31F47012818BF022803D0032808BFBF
:102E600008200ED1617860F3070611F0100F0FD122
:102E7000A17D012918BF022908D0032908BF082114
:102E800004D040F2E9210620FDF7E6FB61F30F26AE
:102E9000CAF30741012908D0617A01A80BF0E8FFC5
:102EA000207D012102280FD10BE00421082808BF52
:102EB00061F30706C6F30720082808BF61F30F2651
:102EC000EAE7607D401CC1B2A07E401CC2B201A8EE
:102ED0000BF064FF380C10F0080F4FF0000524D100
:102EE00001A80BF072FF617811F0100F7FD028223B
:102EF000594601F0C9F900BF40F2712100F2DB2010
:102F0000B0FBF1F000FB01F5D4F8020040F27122B1
:102F1000000A4143D4F80500000A50438D4298BF8F
:102F20000D4602D9854288BF0546A07C60F30F2973
:102F3000207E012818BF002060F3070AD8F84C0053
:102F40000BF0AFF88346D8F84C000BF056F98345E8
:102F500028BF584698B101A90A91390CADF82C1038
:102F60008DF83460310A8DF835100C950AA901F0FE
:102F70006FF8002802BF45200FB0BDE8F08FC8F8F9
:102F80000CA0C8F80070C8E90165DDE90301059AE5
:102F9000C8F81090C8F81C20C8E90501DDE9060151
:102FA000089AC8F82820C8E908010198C8F8300034
:102FB000BDF80800A8F83400E07A002816BF0228FF
:102FC0000020012088F86F00E068C8F87000208AAF
:102FD000A8F87400E07D98F8461060F3071188F8AF
:102FE00046100FB04FF00000BDE8F08FFFE703463A
:102FF000F0B221494FF47A72082831F8101001F22A
:10300000E731B1FBF2F208BF4FF0400C0DD00428BD
:1030100008BF4FF0100C08D0022807BF4FF0040C77
:1030200012214FF0080C192100E014211CFB01F1C2
:10303000082808BF40251BD0042808BF2E2517D01C
:1030400002280CBF182028202844084410FB032025
:103050006FF07F0101EBC3114518FEF7F7FC390C47
:103060000091C6F307220123294600F0A7FD43E79C
:103070004FF4A870E8E700003C420000114A10B588
:1030800000211170104CA060107820B140F22E3158
:103090002D20FDF7E1FA116051609160D16011615E
:1030A00051619161D161116204F0F4FE04F0E4FD1C
:1030B000E068002818BF10BD40F231312D20FDF727
:1030C000CBFA0000BC110020C800002002490148D2
:1030D000C860704770420000C80000200249486084
:1030E000C968096808470000C80000200B4910B5EE
:1030F0000878002818BF0C2401D0204610BD0024F9
:103100000C604C608C60CC600C614C618C61CC615B
:103110000C6204F0BFFE04F0AFFDEEE7BC1100202E
:10312000054910B5097801291CBF002010BD00F029
:1031300025FF002010BD0000BC1100202DE9F0414A
:1031400004468078C0F3C00058B13C23FF222046DB
:10315000216A00F0E9FF02221E4904F18600FFF710
:1031600029FBA0784FF0000510F0010F20D0206A55
:103170003C26078804F08AFCA8B9217884F8BB10A3
:10318000A4F8BC7084F8BA60607B10B984F8BE50B3
:1031900003E094F8480084F8BE0002220E4904F1CE
:1031A000B000FFF707FB012084F88100BDE8F08143
:1031B0004FF6FF773C2604F069FC0028F3D1217814
:1031C00084F8BB10A4F8BC7084F8BA60607B002857
:1031D000DFD1DBE719ED0000C1EC00002DE9F04183
:1031E000734E0F00044627D004F130000BF042FE6E
:1031F000C0B9A078C0F3C000002838D004F1300076
:103200000BF0E3FD054604F130000BF033FE281A05
:10321000C0B20BF05FFE71680844706004F13000CA
:103220000BF053FE04F130000BF0DFFD05F0E4FC81
:103230002179252005F0ACFC5E4D94F876800021C4
:10324000A8680180017801F0DF010170618813290D
:103250002DD011DC102908BF02213DD0122908BF52
:10326000062139D040F273612D20FDF7F5F9204693
:10327000BDE8F04100F082BE152918BF1D29F1D12B
:103280004FF001010BF04AFBA868B8F1000F01787C
:1032900001F0DF0141F02001017013D004F177014A
:1032A0000BF05EFB0121A8680BF061FB16E000212A
:1032B0000BF034FBA868017801F0DF0141F0200138
:1032C00001700BE004F170010BF04AFB94F86F10F1
:1032D000A8680BF04CFB01E00BF020FBA04604F1CA
:1032E0006901A8680BF04CFB98F86810A8680BF00F
:1032F0004EFB60881D2818BF152805D094F854206F
:10330000216DA8680BF0FAFAA86805F02BFA0420E2
:10331000307057B36088102823D004F13000B568AE
:103320000BF053FD074604F130000BF0A3FD381AF3
:10333000401EC0B26188282200F0CCFF0544A0786E
:10334000C0F3C00030B1706805440BF0C7FD2844DD
:10335000C4F8200122792946002005F051FA20B94D
:1033600013E02179002004F067FE6088132815D04F
:1033700010DC102808BFBDE8F08112280ED000BF75
:1033800040F6BC512D20FDF767F940F6A8512D20DD
:10339000FDF762F9152818BF1D28F1D12279BDE883
:1033A000F0414FF001014FF0000005F073BB000049
:1033B000BC110020C80000202DE9F0434C4F81468D
:1033C00083B0387802281CBF3878032805D040F62F
:1033D0002D514FF02D00FDF73FF9464C6568287BD5
:1033E00018B1FFF75BF885F84700D4F808C06168AA
:1033F0004FF000089CF800000A6A00F00F06002A4F
:1034000018BF92F87380B9F1000F53D001F169032E
:1034100091F86820C0090CF109010AF042FF002868
:1034200048D06568052E26D1A06890F8240000F0E9
:103430001F0010281FD9E87BE8B1FF208DF800009D
:103440006A460521284600F021FB90B395F8E80074
:103450008DF804009DF8040058BBA0682222C11C0E
:1034600005F1E9000DF0A0FB0222234905F1E0007F
:10347000FFF7A0F91EE04146A0680BF098F9C0B133
:103480003A7860683146022A1CBF3A78032A05D090
:1034900040F606514FF02D00FDF7DEF8E2683B786C
:1034A00052696FF0070C0CEB8303D2589047054626
:1034B00001E0FFE70125B87B18B104F0EBFC04F054
:1034C000DBFB002D04BF03B0BDE8F08360680BF0A8
:1034D00017FD38B104F000FDE068806803B0BDE876
:1034E000F0430047606803B0BDE8F04300F046BD1C
:1034F000BC110020C80000206DED000030B583B085
:10350000032902D0052972D06DE00446FF208DF812
:1035100000006A460321204600F0B8FA002862D075
:10352000207B374D00283CD09DF8000094F8D61041
:103530008DF804109DF8041099BB227884F8D720E8
:10354000FF2811D004F1D902511EFEF75DFD30B104
:1035500094F8D80040F0020184F8D81012E041F24B
:1035600018012D20FDF778F8A8680178C1F38012C2
:1035700084F8D820D0F80320C4F8D920B0F8070088
:10358000A4F8DD0094F947007F2827D084F8DF00F5
:103590007F2184F8471002221A4904F1CE00FFF778
:1035A00009F9A8680021018004210BF0B7F904F1A2
:1035B0006901A8680BF0E4F994F86810A8680BF0AA
:1035C000E6F994F85C20A16DA8680BF0E9F90E49C2
:1035D00005200870A86805F0C5F80EE040F66C619B
:1035E0002D20FDF739F803B0012030BDFFE7074972
:1035F000096811B188470028F5D003B0002030BD1C
:10360000C800002083ED0000BC110020D80000207D
:10361000094A0300506801D000F0B0BC002908BF7F
:103620007047D168054A096912786FF00F0303EB00
:103630008202895808470000C8000020BC11002001
:1036400070B504464088102810D0114DA87B20B1D9
:1036500004F052FB402004F02BFC0E48806805F07B
:1036600081F8A07810F0040F0BD105E02046BDE8EA
:1036700070400121FFF7B2BD00212279084605F014
:1036800009FA002004F0F4FE0220287070BD00004A
:10369000BC110020C800002070B51C4C6568287B58
:1036A00018B1FEF7FBFE85F84700194DA87B18B14D
:1036B00004F0F0FB04F0E0FA60680BF021FCA8B124
:1036C00060684188C1F30012002A04BFC1F3C00141
:1036D00000290BD0297802291CBF297803290AD098
:1036E00040F637414FF02D00FCF7B6FF6068BDE8AB
:1036F000704000F043BCE1682A78C9686FF00703A6
:1037000003EB82028958BDE870400847C8000020DA
:10371000BC1100202DE9F04FA94D044689B028784E
:1037200000287DD12078FF287AD00020A881686009
:103730006870A87084F88100A24804AEA24F0FC838
:1037400086E80F00F8684068079004A804F07AFE45
:1037500004F060FF04F09EFB04F08EFA9B4805F035
:1037600007FA9B4805F00EFA002009F0DBFD04F192
:1037700030000BF0AAFB04F130000BF036FB05F033
:103780003BFA2179252005F003FA94F9100004F0A2
:10379000DDFF2179002004F013FD0126A860002838
:1037A00001BF2E70002009B0BDE8F08F04F1500178
:1037B000E06C0AF0E8FC814604F15801E06C0AF084
:1037C000E5FC8046B9F1000F1CBF94F824000028E6
:1037D0004FD000BF4FF0010A207F002801BFA07E1C
:1037E0000028A07810F0040F74D0D4E918016FF00D
:1037F000004281EA020171EA000008D00DF040F8B1
:103800000246D4E91830D21A71EB000002D2BAF1A4
:10381000000F79D0FEF742FC6E49A0FB01BA00E030
:1038200023E00DF02DF810EB0B0041EB0A01C4E989
:1038300018014FF0010BE07EFEF74CFB8246A07EA4
:10384000002818BFBAF1000F03D0E07EFEF736FB68
:10385000C8B194F8820000281CBF207F00282BD01C
:1038600094F8680001281CD021E009B00C20BDE8C4
:10387000F08FB8F1000F1ABF94F8250000284FF020
:10388000000AA7D1A8E7324684F8686004F169010C
:1038900050460AF03EFDE17E04F16900FEF726FB8A
:1038A0000AE094F86E0000F0C000402813D059469A
:1038B00004F169000AF01CFDA07810F0040F23D079
:1038C000E07EFEF74DFB5FEA000A1DD01021FEF7F7
:1038D000A7FD40B118E0FEF7EDFA324604F16901A8
:1038E0000AF017FDE8E7324684F8766004F17701C4
:1038F00050460AF00EFD04F17701B8680BF030F87D
:103900000121B8680BF033F894F8841049EA0800F4
:103910008DF800109DF80010002918BF0121084300
:1039200019D0A078C0F30010002804BFB4F84500F7
:10393000C0F30B060FD100BFFEF7EAFFC0F30B0088
:10394000B042F9D0B4F8451060F30B01A4F845106B
:10395000002084F88400B868C01CFEF797FAA873AA
:10396000A07810F0010F27D01B48D0E90210CDE954
:103970000210FF20287702A8266AFDF701FED8B9B9
:10398000029CB44213D0727A607A06F10A0304F101
:103990000A010AF086FC50B1A0782877D4F8030019
:1039A000C5F81D00B4F80700A5F8210004E002A83E
:1039B000FDF7E6FD0028E3D009B00020BDE8F08F58
:1039C000BC11002050420000C8000020D6BE898EE5
:1039D0005555550040420F002C42000010B50446DA
:1039E000FFF798FE002818BF10BD05480078012891
:1039F00003D000212046FFF7F1FB002010BD00009E
:103A0000BC1100202DE9F0411E4E1F4D746828782E
:103A1000002808BFBDE8F081287802281CBF28785C
:103A200003280CD1207B20B12746FEF737FD87F80D
:103A30004700A87B18B104F02DFA04F01DF909F035
:103A400055FC3078C0B120460BF05AFAA0B170682E
:103A50008178C1F3C00121B1BDE8F0410121FFF738
:103A6000BDBB044630300BF005FA28B12046BDE856
:103A7000F0410121FFF7B2BB2046BDE8F04100F064
:103A80007DBA0000C8000020BC1100202DE9F043E1
:103A900083B01546044603290FD094F8800000280F
:103AA00018BF012000264FF00109052904BFA178A5
:103AB00011F0010F6ED060B16CE0A0784FF00006FD
:103AC000C0F340004FF00209002804BF03B0BDE876
:103AD000F0833848DFF8E080807B80B10AF083FC17
:103AE0002870FF2814D0C0B26A4602A9FEF78CFAEB
:103AF00048B169469DF808000AF07FFF064628781D
:103B0000FF280ED104E040F69B712D20FCF7A4FDA8
:103B1000D8F8081011F8030BC0F380100AF06DFFFD
:103B20000646D8F8081094F86F2004F1700311F8D5
:103B3000030BC0F380100AF0B4FBD8F80810074656
:103B400011F8030BC0F38010FEF778FA8046FEF7F9
:103B5000DFFA50B14046FEF703FA30B11021FEF70C
:103B60005FFC002808BF012000D000202978FF2931
:103B700008BF27EA000106D027B9E27E8A4218BFB3
:103B8000002100D10121A27812F0040F01D009B167
:103B90000AE018B103B00020BDE8F08326B9607CCC
:103BA000002818BF4845F5D103B04FF00100BDE82B
:103BB000F0830000BC110020C80000202DE9F84F60
:103BC00004460A9800F0010AC0F3400B04F12600F5
:103BD000FF2828BFFF200A3080B2FF2828BFFF201F
:103BE0005AEA0B0EA4F1D90C1FFA8CFC0CF1F60565
:103BF00044F2552605FB06F54FEA955500950CFB5A
:103C000006F54FEA955808F0FF056FF0F60615FB2C
:103C100006F505EB0C0707F1080C1FFA8CFC0CF1FC
:103C200005094FF0000C4FF4C8754FF4BF7601F54D
:103C3000A57100F01681BBF1000F17D0082A04BF50
:103C4000AB4640200CD0042A04BFB346102007D056
:103C5000022A07BF0CF1180B04200CF1280B0820D6
:103C600000EB800E0EEB801058441AE0DBB1082AFE
:103C700004BF28464FF0400B0FD0042A04BF304643
:103C80004FF0100B09D0022A07BF0CF118004FF0BB
:103C9000040B0CF128004FF0080B0BEB8B1B00EB17
:103CA0008B00084419E0082A04BFAB464FF0400ED1
:103CB0000FD0042A04BFB3464FF0100E09D0022AD9
:103CC00007BF0CF1180B4FF0040E0CF1280B4FF04E
:103CD000080E401D00FB0E1058449C3002F00C01F1
:103CE000002918BF2821084418BF00F5356017D1F6
:103CF000082A04BFAB4640210CD0042A04BFB346B7
:103D0000102107D0022A07BF0CF1180B04210CF177
:103D1000280B0821C1EBC10E0EEB41115944084498
:103D20009830BAF1000F18D0082A08BF40210CD0F3
:103D3000042A04BF3546102107D0022A07BF0CF120
:103D4000180504210CF12805082101EB410202EBC2
:103D5000011129440844BDE8F88FDBB1082A04BFEB
:103D600029464FF0400A0FD0042A04BF31464FF0D5
:103D7000100A09D0022A07BF0CF118014FF0040AFB
:103D80000CF128014FF0080A0AEB8A1A01EB8A01AC
:103D900008441FE004F10E01FF2928BFFF2189B26A
:103DA000082A04BFAA464FF0400B0FD0042A04BFD4
:103DB000B2464FF0100B09D0022A07BF0CF1180AC7
:103DC0004FF0040B0CF1280A4FF0080B491D01FBC2
:103DD0000B005044D92C98BFBDE8F88F93B10099DF
:103DE000082A7DD0042A7CD0022A7BD080E000BF44
:103DF00002EB821205EB820202F5A57201FB0200C2
:103E0000BDE8F88F08F0FF01082A04BF2B464024C4
:103E10000CD0042A04BF3346102407D0022A07BF5F
:103E20000CF1180304240CF12803082404EB841477
:103E300003EB840303F5A57301FB03003904090CAC
:103E400008BFBDE8F88F082A7ED0042A7DD0022A58
:103E50007CD085E009FB0100284400F5A570BDE891
:103E6000F88FDBB1082A04BF28464FF0400A0FD074
:103E7000042A04BF30464FF0100A09D0022A07BFB7
:103E80000CF118004FF0040A0CF128004FF0080A5A
:103E90000AEB8A1A00EB8A00084419E0082A04BFDA
:103EA000AA464FF0400B0FD0042A04BFB2464FF091
:103EB000100B09D0022A07BF0CF1180A4FF0040BAF
:103EC0000CF1280A4FF0080B401D00FB0B1050446A
:103ED000D92C98BFBDE8F88FBBB10099082A02E041
:103EE0000DE009E00DE00AD0042A05D0022A08D02E
:103EF0000CF1280508227BE73546102278E740229E
:103F000076E70CF11805042272E708F0FF01082A91
:103F100004BF2B4640240CD0042A04BF334610248F
:103F200007D0022A07BF0CF1180304240CF1280360
:103F3000082404EB841403EB840303F5A57301FB4D
:103F400003003904090C02E011E00DE011E008BFA4
:103F5000BDE8F88F082A0AD0042A05D0022A08D022
:103F60000CF12805082175E73546102172E740213C
:103F700070E70CF1180504216CE700002DE9F04111
:103F80000446B0F84800304E401CA4F84800B07B0E
:103F9000002520B103F07EFF03F06EFEB57335708F
:103FA00094F8810028B12046BDE8F04101210AF0D3
:103FB000BCBF607B002840D0B4F8481088423CD891
:103FC000012120460AF0B1FFA07810F0010F20D0A7
:103FD000206A4326078803F059FD002818BFBDE872
:103FE000F081207884F8BB00A4F8BC7084F8BA6033
:103FF000607B10B984F8BE5003E094F8480084F860
:10400000BE0004F1B000BDE8F04102220F49FEF706
:10401000D1BB4FF6FF77432603F038FD002818BFC9
:10402000BDE8F081207884F8BB00A4F8BC7084F867
:10403000BA60607B0028E0D1DCE72046BDE8F041B3
:1040400000210AF072BF0000BC110020C1EC00008A
:10405000F8B50A7912F0180F5ED105460C0028D089
:10406000206800282AD00AF0B0FE237B627B042B54
:1040700008BF0823042A08BF08222A494FF47A7C83
:10408000082B31F8131001F2E731B1FBFCF708BF40
:104090004FF0400C17D0042B08BF4FF0100C12D07B
:1040A000022B07BF4FF0040C12214FF0080C19210E
:1040B0000AE040F20C412D20FCF7CEFA40F20D410F
:1040C0002D20FCF7C9FA14211CFB01F10026082B56
:1040D00008BF4FF0400C21D0042B08BF4FF02E0C2E
:1040E0001CD0B446022B0CBF182328236344194468
:1040F00011FB00716FF07F0303EBC0100144A08837
:10410000009000232846FFF759FDA16800F588704C
:1041100081423CBF3046F8BD0120F8BD4FF4A87382
:10412000E4E700003C42000070B5044680F88F30A0
:104130000888A4F89000FF2084F8AD004FF6FF70C7
:1041400016460D46A4F8AE00002B18BF70BD686976
:104150000AF078F9A4F8A600A88BA4F8A800E88BC8
:10416000A4F8AA0095F8090384F8AC00A07E002505
:1041700048B194F86800012805D194F86E0000F069
:10418000C00040282ED094F8820040B194F8680016
:10419000012804BF94F86E0010F0C00F22D004F183
:1041A0009A000CF030FB1C48FF2E80680178C1F3A8
:1041B000801184F89310D0F8031021D0C4F8A01017
:1041C000B0F80700A4F8A40004F19402511E304690
:1041D000FDF71AFF78B194F8930040F0020084F8DC
:1041E000930070BDD4F86900C4F89A00B4F86D006B
:1041F000A4F89E00D7E740F68B412D20FCF72CFA5F
:10420000C4F89410B0F80700A4F89800C4F8A050BF
:10421000A4F8A45070BD0000C8000020024801218D
:104220004068FEF7DBBF0000C8000020030000006C
:1042300001000000000000000000010000002CA6AA
:10424000E0A1000020A800000000000020A800005D
:1042500099360000B933000011360000000000005C
:10426000FD34000041360000B5EC0000BBEC00005E
:10427000DD390000053A00001D4200006C420000DC
:10428000644200006042000010B5421E022A03D9B9
:10429000CA212F20FCF7E0F9401E102902BF0A496D
:1042A00031F8100010BD122914BF1329074907D097
:1042B000152908BF064903D0D8212F20FCF7CCF9D7
:1042C00031F8100010BD0000F4EE0000EEEE00002A
:1042D000FAEE0000421E10B5D2B2012A05D91D29FE
:1042E0001ED0EE212F20FCF7B7F9132914D008DCDB
:1042F000102902BF0D4830F8120010BD12290BD052
:1043000005E0152908BF0A4807D01D2908D04FF439
:1043100081712F20FCF7A0F9064830F8120010BD7B
:1043200040F25A3110FB01F010BD0000E2EE000037
:10433000EAEE0000E6EE00002DE9F043044690F8B6
:10434000280183B015460E4640BB21466F4807F052
:1043500017FB0746202821D05022002104F5887041
:104360000CF09CFC84F810714FF00108C4F8146143
:1043700084F8288136B1FEF7E3FA00F00700401C0C
:1043800086F83C0320460AF05EFC002808BF612640
:104390002FD020460AF049FC20B10AE003B00C20DF
:1043A000BDE8F08320460AF052FC002808BF5026E2
:1043B00000D05A26684609F067F89DF800000028EA
:1043C00014BF0127002701A809F046F89DF8040052
:1043D000002818BF0120384318BF0A3608F09AFF9A
:1043E000002818BF183604D108F036FF002818BF7F
:1043F0000F36A4F83861022084F83A0184F83B8132
:10440000002684F830610CF030FA0746B4F8389191
:1044100008F014FC4F4598BF4F463844CE3087B261
:1044200020460AF00CFC78B30CF0D1F800F5CD6012
:1044300081B2284608F004FD2844C4F834010CF089
:104440001FFAC0197141C4E9500184F81881E6844B
:1044500020460AF0EEFB48B120460121FEF760FC41
:1044600000F23110281AA0F57F7005E001200AF053
:1044700031FD00F23110281AC4F81C014FF0FF3052
:104480004108C4E954012BE0FFE720460021FEF774
:1044900047FCDFF87C8000F23110C4F83401B8F832
:1044A0000410002000291CBFE18C002907D0FEF772
:1044B00047FAB8F80410B0FBF1F201FB1200074410
:1044C0000CF0DEF9C0197141002DC4E9500104BFA0
:1044D0004FF0FF30410801D040197141C4E9540147
:1044E00094F8100104F5987106F06AFB48B1A4F83D
:1044F0004861002120460AF0D5FB03B00020BDE84A
:10450000F0834FF4F7713020FCF7A6F8CDF00000EF
:10451000DC0000200149888070470000DC0000209A
:1045200005480021017001228270417042F2107131
:10453000818000F003B80000DC0000202DE9F0438A
:10454000414E85B0D6E90201CDE900016846FDF78C
:1045500017F80127002510BB009C94F82801C8B16A
:1045600084F85871012120460AF09CFB94F8280138
:1045700080B194F8100106F081FF94F8100107F063
:10458000E7F894F8100107F0C1F8002818BF84F884
:1045900028510FD06846FCF7F3FF0028DCD0DFF885
:1045A000AC8088F80170D6E900014FF6FF77CDE9BD
:1045B000020127E040F20B213020FCF74DF8029871
:1045C00000281CBF90F8941320291BD00088B84203
:1045D00018BF4FF0200930D00121FCF7C7FE0400BE
:1045E00016D094F8940307F0B3F884F84C5394F879
:1045F000940307F08BF884F89493D6E90001CDE991
:10460000020115E002A8FCF7BBFF0028D7D014E098
:104610004FF491713020FCF71FF8029800281CBF5E
:1046200090F89413202903D00088B842D4D104E034
:1046300002A8FCF7A5FF0028EFD088F8015005B0CC
:104640000020BDE8F08300005C460000DC00002094
:104650000149087070470000DC00002000000000E5
:104660000000010000000000000002000000000047
:104670000000020000000000141E000030110000C5
:104680000000000060EA00000000000000000000E0
:104690000000000060EA0000F401FA0096006400E7
:1046A0004B0032001E0014000A0005000200010049
:1046B00010B5114C626892F87820032A04D040F6B5
:1046C00057413220FBF7C8FF022818BF032805D046
:1046D00040F665414FF03200FBF7BEFF002918BFDE
:1046E00001F04EFB00206168A1F8C20081F8C4000F
:1046F00081F8780010BD0000F000002001484068FB
:10470000C0307047F00000202DE9F041384C61685E
:1047100091F84800002816BF02280020012081F8E7
:10472000490001F14A01FDF76DFB606890F84810FF
:10473000022916BF03290121002180F8851090F875
:10474000492000F14A034FF00007012A04BF5B79BA
:1047500013F0C00F0AD000F14A03012A04D15A799C
:1047600002F0C002402A01D0002200E0012280F8BD
:104770005C20002A04BF0029BDE8F08100F1A808F0
:10478000FDF78CFC1B49A0FB01650CF079F8801942
:104790006941C8E90001606890F8850000281CBFE5
:1047A0000020FDF7B1FB0025606890F85D1000293E
:1047B0001ABF90F85C100029BDE8F08190F849100C
:1047C00000F14A02012904D1517901F0C0014029C8
:1047D00005D03946BDE8F0414A3009F089BDFDF702
:1047E00069FB61682A46BDE8F0414A3109F091BD94
:1047F000F000002040420F00034810B540688C30A4
:104800000BF0E0FE002010BDF00000200B484068D7
:10481000816E002904BF0C20704700F16D01FF225A
:104820000A70002282660A7090F86C00012101FA79
:1048300000F003490860002070470000F0000020ED
:1048400008F50140024610B50F480C468260C16869
:10485000A1B142680020A2F8C20082F8C40082F828
:10486000780001F063FA204600F034F8002808BF11
:1048700010BD40F6BB113220FBF7EEFE40F6B5113D
:104880003220FBF7E9FE0000F00000200249014859
:10489000C8607047805A0000F000002070B50446E0
:1048A000FDF7E6F80546FDF7DDF80146284609F074
:1048B00021FA010006D00648C06802682046BDE81B
:1048C0007040104740F6B1213220FBF7C5FE0000D2
:1048D000F000002070B5204D0646686890F878100A
:1048E00001291FBF90F8780000280C2070BDFDF74B
:1048F000E3F801F01BFA6868002490F8840030B1F6
:1049000003F0C8FA03F0B8F9686880F884404622DA
:10491000002168680CF0C2F96968012081F85D40E7
:1049200081F8510081F8584081F8824081F85E603A
:1049300081F8B040072081F8500001F16D00FF229E
:10494000027081F86C408C66047046300470002060
:10495000C1F8B44070BD0000F00000200548406878
:1049600090F84800002816BF022800200120FDF71B
:1049700077BA0000F00000200178002211F0010F4A
:104980002349496809D042780023032A08BF4B65B0
:1049900081F85820012281F8C520037813F0020F16
:1049A0000ED083784FF0000C032B08BFC1F854C021
:1049B00081F85830022301EB020C521C8CF8C530F0
:1049C000037813F0040F0CD0C3784FF0000C032BC6
:1049D00008BFC1F854C081F858300A44082382F84F
:1049E000C530027981F848204279002A16BF022A90
:1049F0000123002381F8513081F85920827981F810
:104A00005020C07981F85B004FF000007047000033
:104A1000F00000200148C06840680047F000002016
:104A200038B5134C0022606890F86D108DF80010B6
:104A30009DF8001031B9816E00291CBF90F86C0000
:104A400007F070F96068002590F8840030B103F039
:104A500021FA03F011F9606880F884506068A0F8CA
:104A6000C25080F8C45080F87850002038BD000053
:104A7000F0000020064881B0406890F840008DF8B2
:104A800000009DF80000002818BF012001B0704709
:104A9000F00000200948406890F8581003290CBF26
:104AA0000121002180F8421004BF416D0988A0F85F
:104AB0004410022202493830FDF77CBEF00000208D
:104AC0009D5700000248406890F858007047000069
:104AD000F00000200C48416891F85800032804D0E9
:104AE000012818BF022807D004E091F85A000128D5
:104AF00008BF70470020704791F85900012814BF83
:104B000003280120F6D17047F00000202DE9F04184
:104B10001E4F05460E4678681D4990F882000C5CD1
:104B2000204604F069F8786880F8974090F8A01063
:104B3000C5300C5C012C0DD0022C08BF0D200ED00E
:104B4000042C18BF082C05D040F626114FF0320077
:104B5000FBF782FDFCF786FF402828BF4020214656
:104B600004F016F8304603F0FDFD21464FF0010039
:104B700035B103F025FB002808BFBDE8F08101E056
:104B800003F05AFA0120BDE8F0810000F000002097
:104B90000F0E01002DE9F047804C0F460646406895
:104BA000616884B090464FF0010A072F04BF0028C7
:104BB000B8F1000F08D04FF000094D4600284ED044
:104BC000727C012A1AD020E081F88AA091F8B30003
:104BD0008DF800009DF80000002804BF04B0BDE877
:104BE000F087D1F8B40050300BF03DFD002804BF31
:104BF000606880F88BA004B0BDE8F087427902F0CD
:104C0000C002402A08BF012500D00025072F2DD162
:104C100091F88420002A18BF002D10D0B8F1000FA1
:104C200004BF91F8C11001291AD000BF09F0DBFBC5
:104C3000616881F8800081F8810081F888A060684F
:104C400090F88000FF2819D06A4602A9FDF7DCF928
:104C5000E8B369469DF8080009F0CFFE054645E037
:104C60000121FDF7B1F9616881F88400606890F86E
:104C70008400002818BF002DE1D0D7E7707C716850
:104C800009F0BBFE62680546707C71688032FDF7F2
:104C90000BFA90F0010F29D0606880F88A9080F8B4
:104CA0008B9000BF4FF00002B068002804BF04B032
:104CB000BDE8F087072F1CBF04B0BDE8F08761682E
:104CC00091F88010FF2914BF002A04B000E008E02A
:104CD00008BFBDE8F087FDF7D1F9606880F889A0CA
:104CE00089E740F634513220FBF7B6FC616828466C
:104CF000072F91F8515009D3082F29D8B8F1000F88
:104D000002D091F88A1019B3716819B1002D08BF4B
:104D100005461EE0B8F1000F05D1707810F0100FB5
:104D200018BF554615D10AF0F4FA30B1606890F812
:104D30008A00002818BF012000D10020284305D197
:104D4000FDF7F6F9002808BF002502D0012500E094
:104D50004D46606880F88A50114802682AB1414681
:104D600030469047616881F88B00706850B1606888
:104D7000717C80F8981071680A68C0F89120898861
:104D8000A0F89510606890F88B10002906BF90F885
:104D90008A000028012287D184E70000F00000206B
:104DA0000001002010B5FDF779FB094C2070606808
:104DB00090F8840038B103F06DF802F05DFF61688F
:104DC000002081F8840003F087F8052010BD000062
:104DD000F000002010B5FDF761FB0349087003F0F7
:104DE0007BF8052010BD0000F000002070B58AB0EF
:104DF0000646FDF753FB114D69462870307800F0E8
:104E00000F042246304601F053F90022214668463D
:104E1000FFF7C0FE2146684600F010F969680446B5
:104E200091F8841039B103F035F802F025FF686875
:104E3000002180F884100AB0204670BDF0000020E8
:104E400010B501788CB001F00F04224602A901F0E0
:104E50002FF903F041F8FDF721FB224B042C1870C9
:104E600038D103990A78596891F891C0624531D1D7
:104E7000039A91F892C0527862452BD1039A91F827
:104E800093C09278624525D1039A91F894C0D27864
:104E900062451FD1039A91F895C01279624519D1E4
:104EA000039A91F896C05279624513D19DF8192062
:104EB00091F898C062450DD17F280ED07F221A70DC
:104EC000009091F8973091F8B02091F8811002A8E5
:104ED00000F0B8FE0CB0052010BD40F24D4132206C
:104EE000FBF7BAFBF00000202DE9F041524C0646DA
:104EF00000216068032E00F17807A068018002D0CD
:104F0000052E04D057E0032109F008FD53E00521E8
:104F100009F004FDD4E90115486D8069C5F80F005A
:104F2000486D006AE874020A2A75000C6875486DBD
:104F30004169008DFDF762FAA875D4E90105406D5D
:104F40004169406AFDF748FAE875000A2876D4E915
:104F50000105406D406909F075FA6876000AA87687
:104F6000D4E90120516D898BC176090A0177516D11
:104F7000C98B4177090A8177516D1F30CE310BF013
:104F80003DFCD4E90105406D95F8241090F8D90056
:104F900001F0E00100F01F00084385F8240002F052
:104FA0001BFE95F82410E02201F01F0102EA4010D8
:104FB000084385F8240007F11901A06809F0D0FC26
:104FC00097F82010A06809F0D2FC606800F14A054B
:104FD00090F8497090F88510A1B190F858104FF0F2
:104FE0000108032906D190F85110002918BF90F844
:104FF000830001D190F88000FCF7BEFF00281CBFA1
:10500000474605462946A06809F0BAFC3946A0681B
:1050100009F0BDFCA06803F0A5FB052E18BFBDE894
:10502000F08160682A68416DC1F80A20AA88CA81A7
:10503000406D4772BDE8F081F00000202DE9F04F8F
:10504000EE4C7F260127002594F90030626883B07A
:10505000002967D001297CD00527022907D006291D
:105060002AD002F039FF03B03846BDE8F08F05467C
:1050700002F032FF606890F88A10C9B190F85810B9
:10508000012918BF022913D194F900107F2900F0DB
:10509000B081267090F8972090F88130CDE90032E9
:1050A000029100F14A02FF230221284600F026FD6A
:1050B00003B03846BDE8F08F92F88A1029B192F813
:1050C0005810022907D001291DD002F005FF03B0B6
:1050D0000520BDE8F08F7F2B00F08B81267092F8C1
:1050E000971092F881C0CDF800C0CDE90113FF23DD
:1050F00006214A3200F002FD61680B2081F8B050B1
:1051000003B0BDE8F08F7F2B00F07381267092F81A
:10511000971092F881C0CDF800C0CDE90113FF23AC
:10512000062139E092F88A10002900F0418192F8B6
:105130005810022908D0012920D003292ED040F68A
:10514000E5613220FBF788FA7F2B00F05281267050
:1051500000E05EE092F8971092F881C0CDF800C0B0
:10516000CDE90113FF2300214A3200F0C7FC60683B
:1051700080F8B07003B00B20BDE8F08F7F2B00F0FB
:105180003881267092F8971092F881C0CDF800C04F
:10519000CDE90113FF2300214A32A6E0416892F8CD
:1051A00061C00B7863451FD14B7892F862C06345AC
:1051B0001AD18B7892F863C0634515D1CB7892F8F9
:1051C00064C0634510D10B7992F865C063450BD17B
:1051D000497992F86630994206D1407C92F8601085
:1051E000884208BF012000D0002092F85A100129FF
:1051F0007ED000287CD1824890F88310082978D08E
:1052000090F88000884273D0D2E003B00520BDE85A
:10521000F08F054692F8850092F88AA0002814BF06
:105220004FF000094FF001090027A87CA968012868
:1052300007D1487900F0C000402808BF4FF00108AE
:1052400001D04FF0000892F85800032806D192F8D8
:105250005100002818BF92F8830001D192F8800015
:105260000090FCF737FE5FEA000B43D00098FCF794
:1052700025FE002818BF4FF00109B8F1000F39D002
:105280005846A96809F07DF80700606890F849B0B1
:1052900018BF4BF0020B014690F8580003282DD0A0
:1052A00002F01AFEBAF1000FAFD06068AA7C00F1DC
:1052B0004A0190F849C0AB68604608F0F2FF002848
:1052C00008BF002F77D094F900007F286FD0267098
:1052D000616891F8972091F88130CDE90032029011
:1052E00001F14A025B460121284600F007FC8CE7E9
:1052F00058E05DE0606890F849B0CCE7686891F8E4
:10530000613002789A4220D1427891F862309A4214
:105310001BD1827891F863309A4216D1C27891F805
:1053200064309A4211D1027991F865309A420CD1D9
:10533000407991F86620904207D1687C91F860200E
:10534000904208BF4FF0010801D04FF000082C4CEC
:1053500094F88000082805D094F88320904208BF74
:10536000012600D0002657B9B9F1000F09D091F8F5
:105370004900AA7C4A31AB6808F093FF08B10121CB
:1053800000E00021BAF1000F09D094F85A0001287A
:1053900003D020B958EA060001D0012000E0002027
:1053A000014205D003B00C20BDE8F08F03E020E0FF
:1053B00002F092FD29E7606890F85910032918BFA0
:1053C00002297FF422AFB8F1000F3FF41EAF94F929
:1053D00000107F290DD0267090F8972090F881302A
:1053E000CDE900320291FE2300F14A020121284654
:1053F0007BE740F24D413220FBF72EF9F000002010
:105400001009002010B5FDF749F80A4C20706068BB
:1054100090F8840038B102F03DFD02F02DFC616887
:10542000002081F8840002F057FDBDE8104000F034
:1054300005BA0000F00000202DE9F0410746FCF716
:1054400017FB0446FCF70EFB0146204608F052FC11
:1054500005000ED0324C606890F8580001281CBF3F
:10546000022803280AD041F25D514FF03200FBF7C9
:10547000F3F841F257513220FBF7EEF86FF01306C4
:1054800027B3284609F053F818B9284609F0EFF970
:10549000E0B16168284691F87820052A04D241F2EB
:1054A000DC413220FBF7D8F891F878200B2A04D39E
:1054B00041F2DD413220FBF7CFF8E26891F8781035
:1054C000526906EB8101515888471AE0606890F8EC
:1054D0007810052904D241F24D513220FBF7BCF877
:1054E00090F878100B2904D341F24E513220FBF78B
:1054F000B3F8E16890F87800896906EB80000858F5
:1055000080470F2804D341F272513220FBF7A4F8F0
:10551000E168096951F82000BDE8F041004700004A
:10552000F000002010B518B1BDE8104000F05EB9E1
:10553000002908BF10BD1048416891F878200B2A57
:1055400004D241F22D613220FBF786F891F87820E1
:105550000F2A04D341F22E613220FBF77DF8C06898
:1055600091F8781080686FF02B0202EB81014058AF
:10557000BDE8104000470000F000002010B5FCF727
:1055800077FA0446FCF76EFA0146204608F0B2FBB3
:1055900050B103F0E7F8002002F06AFF0549062049
:1055A000496881F8780010BD4FF4C6613220FBF7DE
:1055B00053F80000F0000020104910B5486890F83A
:1055C0007820052A04D241F261613220FBF744F8C9
:1055D00090F878200B2A04D341F262613220FBF765
:1055E0003BF8C96890F87800C9686FF0130202EBC5
:1055F00080000858BDE8104000470000F00000207F
:1056000010B5FCF74BFF0449087002F065FCBDE8DB
:10561000104000F013B90000F0000020F8B5464D2E
:1056200004460E46686890F87810002918BF0129D2
:1056300003D003291CBF0C20F8BD217B80F8A010EB
:10564000A168C167217B00F1C502895C80F8C110A7
:105650002168C0F89C10207902281DD002F0DAFFE2
:1056600002F018FC02F008FB344802F0EBFE34486C
:1056700003F088FA334803F07BFA686890F870000A
:1056800000280CBF0120022007F04CFE20790328DF
:105690001CBF304603F066F8607B78B16868012271
:1056A00090F86D108DF800109DF8001031B9816EE2
:1056B00000291CBF90F86C0006F034FB2079032809
:1056C00001D028B11EE040F652213220FAF7C4FF83
:1056D0006A68DFF874C0002092F8501092F88230A7
:1056E0005B1CACFB03746408A4EB8404234482F8C1
:1056F000823021FA03F313F0010F03D1401CC0B232
:105700000328EBD3686890F95E0003F01FF8314678
:105710000120FFF7FBF9002808BFF8BD00F020F9D1
:105720000A48006803281CBF0020F8BD4FF426611A
:105730003220FAF791FF0000F00000209C5A000090
:1057400055555500D6BE898EABAAAAAA5015004061
:1057500038B5114C0022606890F86D108DF800107B
:105760009DF8001031B9816E00291CBF90F86C00C3
:1057700006F0D8FA606890F87800002818BF012871
:1057800007D002281CBF0C2038BD00F057F80020BD
:1057900038BD00F02BF8FAE7F000002010B500202B
:1057A00048701920087010484068D0F842004860DE
:1057B0000879012818BF10BDCC8800212046FBF7CE
:1057C000D5FD002808BF10BD2046FCF70DFB0021C9
:1057D0002046FBF725FF002808BF10BD40F2154109
:1057E0003220FAF739FF0000F000002070B50C4CB1
:1057F0000025606890F8840030B102F04BFB02F0A5
:105800003BFA606880F884506068012180F8781065
:10581000A0F8C25080F8C450BDE8704000F0D6BD7A
:10582000F0000020044841680020A1F8C20081F87F
:10583000C40081F878007047F00000202DE9F041A5
:10584000FCF716F90446FCF70DF90146204608F06E
:1058500051FA050037D000F029F9334C606800F1A7
:10586000C50290F8A0108E5C80F8C160002000F0A6
:105870006FFC00282DD0606890F87800022803D0D3
:1058800029460020FFF742F9012E07BF0127032018
:10589000002705202844FCF7F9FA6168002581F803
:1058A000840040B1002F18BF402616D002F024FA21
:1058B000304602F0FDFA606890F85810032918BFCE
:1058C00002291CD10FE040F21E514FF03200FAF7CE
:1058D000C3FEBDE8F041FFF789BF16F00C0F14BFFF
:1058E00055265026E2E790F8A01000F1C500085CAC
:1058F000012804D100210122084603F0CBF860689A
:10590000FF2180F8801080F8811080F8895080F89D
:10591000885080F88A5080F88B5080F8B05005216C
:1059200080F87810BDE8F081F000002010B5032069
:1059300000F00EFC68B10320FFF7D6FA01221146F1
:10594000002003F0A7F805490B20496881F878008A
:1059500010BDBDE81040FFF749BF0000F000002077
:105960002DE9F0412E4C0021606880F8B01090F8CD
:105970005C10002904BF90F88510002942D000F186
:10598000A8056FF00042D5E9000181EA02014FF05D
:10599000010771EA000035D00AF072FFD5E9002353
:1059A000801A71EB03002DD3606800F1A808FCF7A2
:1059B00075FB1C49A0FB01650AF062FF8019694173
:1059C000C8E90001606890F8850000281CBF01202C
:1059D000FCF79AFA0121606890F85D20002A1CBF4C
:1059E00090F85C20002A0DD090F8493000F14A026E
:1059F000012B04D1527902F0C002402A08D04A306B
:105A000008F076FC6168022081F87800BDE8F0813A
:105A1000FCF750FA61683A464A3108F07AFCF1E73F
:105A2000F000002040420F0025580000ED57000014
:105A300005F3000005F3000005F300003D580000E9
:105A400005F3000005F3000005F3000005F3000076
:105A500005F300002D59000005F3000005F30000D8
:105A600005F300007D5500000554000001560000BC
:105A7000A54D0000D54D0000ED4D0000414E000049
:105A80001D56000051570000645A0000685A00007B
:105A9000285A0000785A0000705A0000B9550000DA
:105AA00039540000255500000FF3000010B582B0F6
:105AB000FBF7DEFF01AA694608F0B0F8009808F08D
:105AC0006BF804461C22002112300BF0E7F87F200F
:105AD00084F82C00FF2184F82010E17484F825104C
